:020000040800F2
:1000000000500020350600081106000813060008FD
:100010001506000817060008190600080000000071
:100020000000000000000000000000001B060008A7
:100030001D060008000000001F0600082106000839
:100040007D0600087D0600087D0600087D06000884
:100050007D0600087D0600087D0600087D06000874
:100060007D0600087D060008250600087D060008BC
:100070007D0600087D0600087D0600087D06000854
:100080007D0600087D0600087D0600087D06000844
:100090007D0600087D0600087D0600082B06000886
:1000A0007D0600087D0600087D0600087D06000824
:1000B0007D0600087D0600087D0600087D06000814
:1000C0007D0600087D0600087D0600087D06000804
:1000D0007D0600087D0600087D0600087D060008F4
:1000E0007D0600087D0600087D060008000000006F
:1000F0000000000000000000000000000000000000
:0C01000000000000000000005FF808F1A3
:10010C0010B5054C237833B9044B13B10448AFF345
:10011C0000800123237010BD0C00002000000000A3
:10012C00F40E000808B5034B1BB103490348AFF3A9
:10013C00008008BD0000000010000020F40E000834
:10014C000122402108B5054800F032FCBDE808400A
:10015C0001220348114600F02BBC00BF00080140EF
:10016C00000C014008B500224021054800F020FC9D
:10017C00BDE8084000220121024800F019BC00BF74
:10018C0000080140000C014008B5012280210548FF
:10019C0000F00EFCBDE8084001220221024800F0EC
:1001AC0007BC00BF00080140000C014008B500224C
:1001BC008021054800F0FCFBBDE80840002202212C
:1001CC00024800F0F5BB00BF00080140000C0140E4
:1001DC0070B51B4B1B4D18702B7803F0FF0213B13D
:1001EC00022A28D070BD0028FCD0174E174C33784B
:1001FC009BB1174B1B78412B0FD12378412B07D187
:10020C00FFF7B0FF002323700122124B1A70E9E7AD
:10021C00422BF7D1FFF7CAFFF4E7FFF7B5FFFFF763
:10022C00A1FF00233370237001232B7000F064FABC
:10023C00094B1860D6E70028D4D0FFF793FFE3E70B
:10024C00340000203C0000203D000020280000204D
:10025C0032000020330000203800002070B51C4B09
:10026C001C4D18702B7803F0FF0413B1012C28D00F
:10027C0070BD0028FCD0184E184C33789BB1184B2D
:10028C001B78422B0FD12378412B07D1FFF76AFF44
:10029C00002301222370134B1A70E9E7422BF7D18C
:1002AC00FFF784FFF4E7FFF74BFFFFF77FFF002317
:1002BC003370237002232B7000F01EFA0A4B186067
:1002CC00D6E70028D4D0FFF771FF064B1C70CFE7A0
:1002DC00350000203C0000203D00002028000020BC
:1002EC00320000203300002038000020F8B5244DE7
:1002FC002B78B3B1234F3B789BB1234B234E1C7807
:10030C00234B1B781C432DD100F0F6F93368C01A2F
:10031C00B0F5FA7F05D9FFF725FFFFF747FF3C70D3
:10032C002C701C4E3378E3B12B78D3B9164B184A8A
:10033C001B781278184C13431DD1124D2B78D3B166
:10034C0000F0DAF92368C01AB0F5FA7F09D9134C1A
:10035C002378412B0AD1FFF705FF0023237033705C
:10036C002B70F8BD00F0C8F93060DAE7422BF4D1FD
:10037C00FFF71CFFF1E700F0BFF92060F1E700BFC9
:10038C003C00002033000020340000202C00002012
:10039C00350000203D0000204000002028000020F7
:1003AC0038B5104C2378DBB100F0A6F90E4B1B6866
:1003BC00C01A0E4B984213D923780D4A012B14BF47
:1003CC0041234223002513700A4A137001220A4B61
:1003DC001D700A4B1A7000F08FF9094B25701860CC
:1003EC0038BD00BF3C00002038000020E093040022
:1003FC003200002028000020330000203D000020A7
:10040C004000002070B51021174800F0CBFA2021D5
:10041C00B0FA80F5144800F0C5FAB0FA80F4134B2A
:10042C006D091B78124EAB424FEA541408D0337846
:10043C000133DBB2022B337004D92846FFF7C8FE18
:10044C00002333700B4B0C4D1B78A34208D02B7838
:10045C000133DBB2022B2B7004D92046FFF7FEFED2
:10046C0000232B7070BD00BF000801403400002039
:10047C0030000020350000203100002000B591B084
:10048C002422002107A800F003FD1422002101A85A
:10049C0000F0FEFC022301210693102306A8CDE9EF
:1004AC000A1300F097FA014608B172B6FEE70F2363
:1004BC00CDE90300CDE90130059001A800F04CFC1A
:1004CC0008B172B6FEE711B05DF804FB00B589B057
:1004DC0000F0F4F8FFF7D2FF102200210DEB020020
:1004EC0000F0D6FC314BC0219A69314842F0200211
:1004FC009A619A69012502F020020192019A9A6987
:10050C00002442F004029A619A69022602F0040265
:10051C000292029A9A6942F008029A619B6900223F
:10052C0003F008030393039B00F042FA002203211B
:10053C00204800F03DFA002203211E4800F038FA52
:10054C0030221D4B04A91A48CDE90423069500F06E
:10055C004FF9C02304A91648CDE90435CDE9064668
:10056C0000F046F9032304A91248CDE90435CDE97E
:10057C00064600F03DF9224621460A2000F0E6F836
:10058C000A2000F013F922462146172000F0DEF86D
:10059C00172000F00BF962B6FFF702FFFFF732FFEE
:1005AC00FFF7A4FE0A2000F0ADF8F5E700100240BA
:1005BC0000080140000C01400000311070470000A1
:1005CC000E4B82B09A6942F001029A619A6902F06C
:1005DC0001020092009ADA6942F08052DA61DB691A
:1005EC00074A03F080530193019B536823F0E063A7
:1005FC0043F08073536002B0704700BF001002409C
:10060C0000000140FEE7FEE7FEE7FEE7FEE770476D
:10061C007047704700F064B8102000F0CFB920206C
:10062C0000F0CCB970470000FFF7FCFF0B480C49F9
:10063C000C4A002302E0D458C4500433C4188C4232
:10064C00F9D3094A094C002301E013600432A24299
:10065C00FBD300F025FCFFF739FF704700000020AA
:10066C000C000020380F00080C000020480000206F
:10067C00FEE7000038B50E4B05461A784FF47A7336
:10068C00B3FBF2F30B4A1068B0FBF3F000F09CF8EC
:10069C00044658B90F2D09D8024629464FF0FF30B1
:1006AC0000F054F82046044B1D6038BD0120FCE7D7
:1006BC00040000200000002008000020074A08B5B4
:1006CC001368032043F01003136000F02DF80F2083
:1006DC00FFF7D0FFFFF774FF002008BD0020024099
:1006EC00034A044B11681B780B441360704700BF1E
:1006FC004400002004000020014B1868704700BF24
:10070C004400002038B50446FFF7F6FF0546631C8D
:10071C001EBF044B1B78E418FFF7EEFF431BA342EC
:10072C00FAD338BD0400002007490302CA6803F459
:10073C00E06322F4E0621204120C134343F0BF6333
:10074C0043F40033CB60704700ED00E0154B30B53F
:10075C00DC68C4F30224C4F10703251D042B28BF55
:10076C000423062D4FF0FF3594BF0024033C05FAFB
:10077C0003F321EA0303A54022EA0502A340002863
:10078C0043EA0203ACBF00F16040074A4FEA03138F
:10079C00DBB2ABBF00F5614000F00F0080F8003316
:1007AC00135430BD00ED00E014ED00E0002807DB31
:1007BC0001234109034A00F01F00834042F8213015
:1007CC00704700BF00E100E00138B0F1807F0BD230
:1007DC004FF0E023F021054A586182F823100020E5
:1007EC00072298611A6170470120704700ED00E004
:1007FC002DE9F74F00221646644F654BDFF894C184
:10080C00DFF894E10D6835FA06F402D103B0BDE8C7
:10081C00F08F4FF0010808FA06F805EA080438EAE8
:10082C0005057AD14D68032D07D8013D022D00F244
:10083C008780DFE805F0959AA000122D00F09880D3
:10084C006DD8112D00F08E80FF2C98BF82464FF092
:10085C000F0988BF00F1040A4FEA8605DAF8008018
:10086C0088BF203D09FA05FB28EA0B0802FA05F5BA
:10087C0048EA0505CAF80050D1F804A01AF0805FC8
:10088C004BD0BD6926F0030845F00105BD61BD697B
:10089C0008F1804805F00105019508F5803806F04F
:1008AC00030B019D4FEA8B0BD8F8085009FA0BF992
:1008BC0025EA0909394DA84261D005F58065A842A1
:1008CC005FD005F58065A8425DD005F58065A8422E
:1008DC000CBF0325042505FA0BF545EA0905C8F8F4
:1008EC0008509D681AF4801F14BF2543A5439D60D2
:1008FC00DD681AF4001F14BF2543A543DD605D6855
:10090C001AF4003F14BF2543A5435D601D681AF41B
:10091C00803F14BF2543A5431D60013672E7DFF805
:10092C0080904D450CD017D8A9F580194D4507D0AE
:10093C0009F570294D4503D0A9F580194D4583D192
:10094C008A68D2B1012A08BFC0F810804FF00802A3
:10095C0018BFC0F8148077E76545F1D07545EEE710
:10096C00CA6871E7CA6804326EE7CA6808326BE776
:10097C00CA680C3268E7002266E7042264E70025A7
:10098C00A9E70125A7E70225A5E700BF0010024053
:10099C00000401400000311000003210000801403A
:1009AC00000022108368194214BF012000207047F8
:1009BC000AB1016170470904FBE70000044A08B55D
:1009CC005169014202D05061FFF7F8FD08BD00BF2C
:1009DC00000401402DE9F341054638B30368DB07F9
:1009EC0010D42B689F075ED42B68190700F19580F3
:1009FC002B685A0700F1C180E869002840F02C816F
:100A0C00002029E0904C636803F00C03042B07D002
:100A1C00636803F00C03082B0AD16368DE0307D567
:100A2C0023689C03DDD56B68002BDAD1012013E021
:100A3C006B68B3F5803F12D1236843F48033236095
:100A4C00FFF75AFE064623689803CAD4FFF754FEF4
:100A5C00801B6428F7D9032002B0BDE8F0819BB954
:100A6C00236823F480332360236823F480232360DA
:100A7C00FFF742FE064623689903B2D5FFF73CFE0A
:100A8C00801B6428F7D9E6E7B3F5A02F236803D1C0
:100A9C0043F480232360CFE723F48033236023685F
:100AAC0023F48023CBE7684C636813F00C0F07D05A
:100ABC00636803F00C03082B10D16368DA030DD4C0
:100ACC0023689B0702D52B69012BAFD123686A6978
:100ADC0023F0F80343EAC203236085E72A695B4BE2
:100AEC006AB101221A60FFF707FE064623689F07CA
:100AFC00ECD4FFF701FE801B0228F7D9ABE71A6094
:100B0C00FFF7FAFD0646236898077FF56DAFFFF7F0
:100B1C00F3FD801B0228F6D99DE7AA694A4E4B4B80
:100B2C00E2B10122C3F88024FFF7E6FD0446736AA4
:100B3C009B070DD54FF4FA52454B1B68B3FBF2F3F0
:100B4C00019300BF019B5A1E0192002BF9D14FE774
:100B5C00FFF7D2FD001B0228E9D97CE7C3F88024FB
:100B6C00FFF7CAFD0446736A9F077FF541AFFFF795
:100B7C00C3FD001B0228F6D96DE7334CE369D8009E
:100B8C0024D40127E36943F08053E361E36903F064
:100B9C0080530093009B2F4E3368D90518D5EB6812
:100BAC00012B26D1236A43F001032362FFF7A4FD36
:100BBC0041F288380646236A9B073FD5002F3FF445
:100BCC001BAFE36923F08053E36115E70027E2E7ED
:100BDC00336843F480733360FFF78EFD80463368CF
:100BEC00DA05DCD4FFF788FDA0EB08006428F6D901
:100BFC0031E7ABB9236A41F2883823F00103236251
:100C0C00236A23F004032362FFF776FD0646236A6A
:100C1C009807D3D5FFF770FD801B4045F7D91AE72D
:100C2C00052B236A03D143F004032362BAE723F0B4
:100C3C0001032362236A23F00403B6E7FFF75CFD8C
:100C4C00801B4045B7D906E7001002400000424225
:100C5C0000000020007000402A4C636803F00C0375
:100C6C00082B3ED00022284B02281A662CD1FFF705
:100C7C0043FD06462368990120D42B6AB3F5803FC7
:100C8C0005D16268A96822F400320A436260696A7D
:100C9C0062680B4322F474121343012263601A4BF3
:100CAC001A66FFF729FD054623689A013FF5A8AEA1
:100CBC00FFF722FD401B0228F6D9CCE6FFF71CFDFE
:100CCC00801B0228D6D9C6E6FFF716FD0546236819
:100CDC009B017FF595AEFFF70FFD401B0228F6D95F
:100CEC00B9E601283FF4B8AE63682A6A03F4803190
:100CFC0091427FF49BAE6A6A03F4701393423FF403
:100D0C007FAE93E600100240000042420D4A536849
:100D1C0003F00C01082912D10B48C3F38341DB0308
:100D2C00405C09D55368094AC3F340435043084A11
:100D3C00D35CB0FBF3F07047064B58437047034845
:100D4C00704700BF001002401C0F000800127A0010
:100D5C002C0F000800093D002DE9F0410D4604461A
:100D6C0010B90120BDE8F081444A136803F0070371
:100D7C008B4228D321688E0730D4CA0743D43F4A0C
:100D8C00136803F00703AB4265D822683C4D12F0A0
:100D9C00040F6CD1130706D56B68226923F46053DA
:100DAC0043EAC2036B60FFF7B1FF6B68354AC3F3CC
:100DBC000313D35CD840344B1860344B1868FFF7DE
:100DCC0059FC0020CEE7136823F007030B43136094
:100DDC00136803F007038B42C3D1CBE7284B11F008
:100DEC00040F1EBF5A6842F4E0625A60080742BF03
:100DFC005A6842F460525A605A68A06822F0F002B5
:100E0C0002435A60B9E762681D4E012A33681AD151
:100E1C0013F4003FA5D0736841F2883823F0030324
:100E2C0013437360FFF768FC07467368626803F04E
:100E3C000C03B3EB820FA2D0FFF75EFCC01B404546
:100E4C00F3D903208EE7022A02D113F0007FE1E7E9
:100E5C0013F0020FDEE7136823F007032B43136034
:100E6C00136803F00703AB427FF47BAF8DE76B682D
:100E7C00E16823F4E0630B436B608BE700200240D6
:100E8C00001002400C0F0008000000200800002099
:100E9C0003460244934200D1704703F8011BF9E763
:100EAC0070B500260C4D0D4C641BA410A64209D144
:100EBC0000F01AF800260A4D0A4C641BA410A64236
:100ECC0005D170BD55F8043B98470136EEE755F84F
:100EDC00043B98470136F2E7300F0008300F00084A
:100EEC00300F0008340F0008F8B500BFF8BC08BC80
:100EFC009E467047F8B500BFF8BC08BC9E467047CC
:100F0C0000000000000000000102030406070809AD
:100F1C0002030405060708090A0B0C0D0E0F10102E
:040F2C0001020000BE
:040F30003101000883
:040F34000D010008A3
:0C0F380000127A00010000001000000010
:0400000508000635B4
:00000001FF
